{
  "contractName": "SolnSquareVerifier",
  "abi": [
    {
      "constant": true,
      "inputs": [
        {
          "name": "interfaceId",
          "type": "bytes4"
        }
      ],
      "name": "supportsInterface",
      "outputs": [
        {
          "name": "",
          "type": "bool"
        }
      ],
      "payable": false,
      "stateMutability": "view",
      "type": "function"
    },
    {
      "constant": true,
      "inputs": [],
      "name": "name",
      "outputs": [
        {
          "name": "",
          "type": "string"
        }
      ],
      "payable": false,
      "stateMutability": "view",
      "type": "function"
    },
    {
      "constant": true,
      "inputs": [
        {
          "name": "tokenId",
          "type": "uint256"
        }
      ],
      "name": "getApproved",
      "outputs": [
        {
          "name": "",
          "type": "address"
        }
      ],
      "payable": false,
      "stateMutability": "view",
      "type": "function"
    },
    {
      "constant": false,
      "inputs": [
        {
          "name": "to",
          "type": "address"
        },
        {
          "name": "tokenId",
          "type": "uint256"
        }
      ],
      "name": "approve",
      "outputs": [],
      "payable": false,
      "stateMutability": "nonpayable",
      "type": "function"
    },
    {
      "constant": false,
      "inputs": [
        {
          "name": "baseTokenURI",
          "type": "string"
        },
        {
          "name": "tokenId",
          "type": "uint256"
        }
      ],
      "name": "setTokenURI",
      "outputs": [],
      "payable": false,
      "stateMutability": "nonpayable",
      "type": "function"
    },
    {
      "constant": false,
      "inputs": [
        {
          "name": "newOwner",
          "type": "address"
        },
        {
          "name": "tokenId",
          "type": "uint256"
        }
      ],
      "name": "transferOwnership",
      "outputs": [],
      "payable": false,
      "stateMutability": "nonpayable",
      "type": "function"
    },
    {
      "constant": true,
      "inputs": [],
      "name": "totalSupply",
      "outputs": [
        {
          "name": "",
          "type": "uint256"
        }
      ],
      "payable": false,
      "stateMutability": "view",
      "type": "function"
    },
    {
      "constant": false,
      "inputs": [
        {
          "name": "from",
          "type": "address"
        },
        {
          "name": "to",
          "type": "address"
        },
        {
          "name": "tokenId",
          "type": "uint256"
        }
      ],
      "name": "transferFrom",
      "outputs": [],
      "payable": false,
      "stateMutability": "nonpayable",
      "type": "function"
    },
    {
      "constant": false,
      "inputs": [
        {
          "name": "_myid",
          "type": "bytes32"
        },
        {
          "name": "_result",
          "type": "string"
        }
      ],
      "name": "__callback",
      "outputs": [],
      "payable": false,
      "stateMutability": "nonpayable",
      "type": "function"
    },
    {
      "constant": true,
      "inputs": [
        {
          "name": "owner",
          "type": "address"
        },
        {
          "name": "index",
          "type": "uint256"
        }
      ],
      "name": "tokenOfOwnerByIndex",
      "outputs": [
        {
          "name": "",
          "type": "uint256"
        }
      ],
      "payable": false,
      "stateMutability": "view",
      "type": "function"
    },
    {
      "constant": false,
      "inputs": [],
      "name": "_pause",
      "outputs": [
        {
          "name": "",
          "type": "bool"
        }
      ],
      "payable": false,
      "stateMutability": "nonpayable",
      "type": "function"
    },
    {
      "constant": false,
      "inputs": [
        {
          "name": "_myid",
          "type": "bytes32"
        },
        {
          "name": "_result",
          "type": "string"
        },
        {
          "name": "_proof",
          "type": "bytes"
        }
      ],
      "name": "__callback",
      "outputs": [],
      "payable": false,
      "stateMutability": "nonpayable",
      "type": "function"
    },
    {
      "constant": false,
      "inputs": [
        {
          "name": "to",
          "type": "address"
        },
        {
          "name": "tokenId",
          "type": "uint256"
        }
      ],
      "name": "mint",
      "outputs": [
        {
          "name": "",
          "type": "bool"
        }
      ],
      "payable": false,
      "stateMutability": "nonpayable",
      "type": "function"
    },
    {
      "constant": false,
      "inputs": [
        {
          "name": "from",
          "type": "address"
        },
        {
          "name": "to",
          "type": "address"
        },
        {
          "name": "tokenId",
          "type": "uint256"
        }
      ],
      "name": "safeTransferFrom",
      "outputs": [],
      "payable": false,
      "stateMutability": "nonpayable",
      "type": "function"
    },
    {
      "constant": true,
      "inputs": [],
      "name": "squareVerifier",
      "outputs": [
        {
          "name": "",
          "type": "address"
        }
      ],
      "payable": false,
      "stateMutability": "view",
      "type": "function"
    },
    {
      "constant": true,
      "inputs": [
        {
          "name": "index",
          "type": "uint256"
        }
      ],
      "name": "tokenByIndex",
      "outputs": [
        {
          "name": "",
          "type": "uint256"
        }
      ],
      "payable": false,
      "stateMutability": "view",
      "type": "function"
    },
    {
      "constant": true,
      "inputs": [
        {
          "name": "tokenId",
          "type": "uint256"
        }
      ],
      "name": "ownerOf",
      "outputs": [
        {
          "name": "",
          "type": "address"
        }
      ],
      "payable": false,
      "stateMutability": "view",
      "type": "function"
    },
    {
      "constant": true,
      "inputs": [],
      "name": "baseURI",
      "outputs": [
        {
          "name": "",
          "type": "string"
        }
      ],
      "payable": false,
      "stateMutability": "view",
      "type": "function"
    },
    {
      "constant": true,
      "inputs": [
        {
          "name": "owner",
          "type": "address"
        }
      ],
      "name": "balanceOf",
      "outputs": [
        {
          "name": "",
          "type": "uint256"
        }
      ],
      "payable": false,
      "stateMutability": "view",
      "type": "function"
    },
    {
      "constant": false,
      "inputs": [],
      "name": "renounceOwnership",
      "outputs": [],
      "payable": false,
      "stateMutability": "nonpayable",
      "type": "function"
    },
    {
      "constant": true,
      "inputs": [],
      "name": "symbol",
      "outputs": [
        {
          "name": "",
          "type": "string"
        }
      ],
      "payable": false,
      "stateMutability": "view",
      "type": "function"
    },
    {
      "constant": false,
      "inputs": [
        {
          "name": "baseTokenURI",
          "type": "string"
        },
        {
          "name": "tokenId",
          "type": "uint256"
        }
      ],
      "name": "tokenURI",
      "outputs": [
        {
          "name": "",
          "type": "string"
        }
      ],
      "payable": false,
      "stateMutability": "nonpayable",
      "type": "function"
    },
    {
      "constant": true,
      "inputs": [
        {
          "name": "tokenId",
          "type": "uint256"
        }
      ],
      "name": "owner",
      "outputs": [
        {
          "name": "",
          "type": "address"
        }
      ],
      "payable": false,
      "stateMutability": "view",
      "type": "function"
    },
    {
      "constant": false,
      "inputs": [
        {
          "name": "to",
          "type": "address"
        },
        {
          "name": "approved",
          "type": "bool"
        }
      ],
      "name": "setApprovalForAll",
      "outputs": [],
      "payable": false,
      "stateMutability": "nonpayable",
      "type": "function"
    },
    {
      "constant": false,
      "inputs": [
        {
          "name": "from",
          "type": "address"
        },
        {
          "name": "to",
          "type": "address"
        },
        {
          "name": "tokenId",
          "type": "uint256"
        },
        {
          "name": "_data",
          "type": "bytes"
        }
      ],
      "name": "safeTransferFrom",
      "outputs": [],
      "payable": false,
      "stateMutability": "nonpayable",
      "type": "function"
    },
    {
      "constant": true,
      "inputs": [
        {
          "name": "owner",
          "type": "address"
        },
        {
          "name": "operator",
          "type": "address"
        }
      ],
      "name": "isApprovedForAll",
      "outputs": [
        {
          "name": "",
          "type": "bool"
        }
      ],
      "payable": false,
      "stateMutability": "view",
      "type": "function"
    },
    {
      "constant": false,
      "inputs": [],
      "name": "_unpause",
      "outputs": [
        {
          "name": "",
          "type": "bool"
        }
      ],
      "payable": false,
      "stateMutability": "nonpayable",
      "type": "function"
    },
    {
      "inputs": [
        {
          "name": "verifierAddress",
          "type": "address"
        },
        {
          "name": "name",
          "type": "string"
        },
        {
          "name": "symbol",
          "type": "string"
        }
      ],
      "payable": false,
      "stateMutability": "nonpayable",
      "type": "constructor"
    },
    {
      "anonymous": false,
      "inputs": [
        {
          "indexed": false,
          "name": "index",
          "type": "bytes32"
        },
        {
          "indexed": false,
          "name": "account",
          "type": "address"
        }
      ],
      "name": "SolutionAdded",
      "type": "event"
    },
    {
      "anonymous": false,
      "inputs": [
        {
          "indexed": true,
          "name": "from",
          "type": "address"
        },
        {
          "indexed": true,
          "name": "to",
          "type": "address"
        },
        {
          "indexed": true,
          "name": "tokenId",
          "type": "uint256"
        }
      ],
      "name": "Transfer",
      "type": "event"
    },
    {
      "anonymous": false,
      "inputs": [
        {
          "indexed": true,
          "name": "owner",
          "type": "address"
        },
        {
          "indexed": true,
          "name": "approved",
          "type": "address"
        },
        {
          "indexed": true,
          "name": "tokenId",
          "type": "uint256"
        }
      ],
      "name": "Approval",
      "type": "event"
    },
    {
      "anonymous": false,
      "inputs": [
        {
          "indexed": true,
          "name": "owner",
          "type": "address"
        },
        {
          "indexed": true,
          "name": "operator",
          "type": "address"
        },
        {
          "indexed": false,
          "name": "approved",
          "type": "bool"
        }
      ],
      "name": "ApprovalForAll",
      "type": "event"
    },
    {
      "anonymous": false,
      "inputs": [
        {
          "indexed": false,
          "name": "account",
          "type": "address"
        }
      ],
      "name": "Paused",
      "type": "event"
    },
    {
      "anonymous": false,
      "inputs": [
        {
          "indexed": false,
          "name": "account",
          "type": "address"
        }
      ],
      "name": "UnPaused",
      "type": "event"
    },
    {
      "anonymous": false,
      "inputs": [
        {
          "indexed": false,
          "name": "oldOwer",
          "type": "address"
        },
        {
          "indexed": false,
          "name": "newOwner",
          "type": "address"
        }
      ],
      "name": "OwnershipTransferred",
      "type": "event"
    },
    {
      "constant": false,
      "inputs": [
        {
          "name": "key",
          "type": "bytes32"
        }
      ],
      "name": "addSolutionsToArray",
      "outputs": [
        {
          "name": "",
          "type": "bool"
        }
      ],
      "payable": false,
      "stateMutability": "nonpayable",
      "type": "function"
    },
    {
      "constant": false,
      "inputs": [
        {
          "name": "to",
          "type": "address"
        },
        {
          "name": "tokenId",
          "type": "uint256"
        }
      ],
      "name": "mintToken",
      "outputs": [
        {
          "name": "",
          "type": "bool"
        }
      ],
      "payable": false,
      "stateMutability": "nonpayable",
      "type": "function"
    }
  ],
  "bytecode": "0x60806040523480156200001157600080fd5b5060405162003f2138038062003f21833981018060405260608110156200003757600080fd5b810190808051906020019092919080516401000000008111156200005a57600080fd5b828101905060208101848111156200007157600080fd5b81518560018202830111640100000000821117156200008f57600080fd5b50509291906020018051640100000000811115620000ac57600080fd5b82810190506020810184811115620000c357600080fd5b8151856001820283011164010000000082111715620000e157600080fd5b505092919050505081818181606060405190810160405280603f81526020017f68747470733a2f2f73332d75732d776573742d322e616d617a6f6e6177732e6381526020017f6f6d2f756461636974792d626c6f636b636861696e2f63617073746f6e652f00815250336000806101000a81548173ffffffffffffffffffffffffffffffffffffffff021916908373ffffffffffffffffffffffffffffffffffffffff1602179055507f8be0079c531659141344cd1fd0a4f28419497f9722a3daafe3b4186f6b6457e0336000809054906101000a900473ffffffffffffffffffffffffffffffffffffffff16604051808373ffffffffffffffffffffffffffffffffffffffff1673ffffffffffffffffffffffffffffffffffffffff1681526020018273ffffffffffffffffffffffffffffffffffffffff1673ffffffffffffffffffffffffffffffffffffffff1681526020019250505060405180910390a16000600260006101000a81548160ff0219169083151502179055506200029a6301ffc9a77c010000000000000000000000000000000000000000000000000000000002620003eb640100000000026401000000009004565b620002d76380ac58cd7c010000000000000000000000000000000000000000000000000000000002620003eb640100000000026401000000009004565b6200031463780e9d637c010000000000000000000000000000000000000000000000000000000002620003eb640100000000026401000000009004565b82601190805190602001906200032c929190620004aa565b50816012908051906020019062000345929190620004aa565b5080601390805190602001906200035e929190620004aa565b506200039c635b5e139f7c010000000000000000000000000000000000000000000000000000000002620003eb640100000000026401000000009004565b505050505082601760006101000a81548173ffffffffffffffffffffffffffffffffffffffff021916908373ffffffffffffffffffffffffffffffffffffffff16021790555050505062000559565b63ffffffff7c010000000000000000000000000000000000000000000000000000000002817bffffffffffffffffffffffffffffffffffffffffffffffffffffffff1916141515156200043d57600080fd5b600160036000837bffffffffffffffffffffffffffffffffffffffffffffffffffffffff19167bffffffffffffffffffffffffffffffffffffffffffffffffffffffff1916815260200190815260200160002060006101000a81548160ff02191690831515021790555050565b828054600181600116156101000203166002900490600052602060002090601f016020900481019282601f10620004ed57805160ff19168380011785556200051e565b828001600101855582156200051e579182015b828111156200051d57825182559160200191906001019062000500565b5b5090506200052d919062000531565b5090565b6200055691905b808211156200055257600081600090555060010162000538565b5090565b90565b6139b880620005696000396000f3fe608060405260043610610175576000357c0100000000000000000000000000000000000000000000000000000000900463ffffffff16806301ffc9a71461017a57806306fdde03146101ec578063081812fc1461027c578063095ea7b3146102f757806309a3beef146103525780630a2766801461042457806318160ddd1461047f57806323b872dd146104aa57806327dc297e146105255780632f745c59146105f7578063320b2ad9146106665780633474e94e1461069557806338bbfa50146106e857806340c10f191461085157806342842e0e146108c45780634c1b1c931461093f5780634f6ccce7146109965780636352211e146109e55780636c0360eb14610a6057806370a0823114610af0578063715018a614610b5557806379c6506814610b6c57806395d89b4114610bdf5780639b330cb914610c6f578063a123c33e14610dba578063a22cb46514610e35578063b88d4fde14610e92578063e985e9c514610fa4578063fc8234cb1461102d575b600080fd5b34801561018657600080fd5b506101d26004803603602081101561019d57600080fd5b8101908080357bffffffffffffffffffffffffffffffffffffffffffffffffffffffff1916906020019092919050505061105c565b604051808215151515815260200191505060405180910390f35b3480156101f857600080fd5b506102016110c4565b6040518080602001828103825283818151815260200191508051906020019080838360005b83811015610241578082015181840152602081019050610226565b50505050905090810190601f16801561026e5780820380516001836020036101000a031916815260200191505b509250505060405180910390f35b34801561028857600080fd5b506102b56004803603602081101561029f57600080fd5b8101908080359060200190929190505050611166565b604051808273ffffffffffffffffffffffffffffffffffffffff1673ffffffffffffffffffffffffffffffffffffffff16815260200191505060405180910390f35b34801561030357600080fd5b506103506004803603604081101561031a57600080fd5b81019080803573ffffffffffffffffffffffffffffffffffffffff1690602001909291908035906020019092919050505061121b565b005b34801561035e57600080fd5b506104226004803603604081101561037557600080fd5b810190808035906020019064010000000081111561039257600080fd5b8201836020820111156103a457600080fd5b803590602001918460018302840111640100000000831117156103c657600080fd5b91908080601f016020809104026020016040519081016040528093929190818152602001838380828437600081840152601f19601f820116905080830192505050505050509192919290803590602001909291905050506113db565b005b34801561043057600080fd5b5061047d6004803603604081101561044757600080fd5b81019080803573ffffffffffffffffffffffffffffffffffffffff16906020019092919080359060200190929190505050611406565b005b34801561048b57600080fd5b506104946116a6565b6040518082815260200191505060405180910390f35b3480156104b657600080fd5b50610523600480360360608110156104cd57600080fd5b81019080803573ffffffffffffffffffffffffffffffffffffffff169060200190929190803573ffffffffffffffffffffffffffffffffffffffff169060200190929190803590602001909291905050506116b3565b005b34801561053157600080fd5b506105f56004803603604081101561054857600080fd5b81019080803590602001909291908035906020019064010000000081111561056f57600080fd5b82018360208201111561058157600080fd5b803590602001918460018302840111640100000000831117156105a357600080fd5b91908080601f016020809104026020016040519081016040528093929190818152602001838380828437600081840152601f19601f820116905080830192505050505050509192919290505050611733565b005b34801561060357600080fd5b506106506004803603604081101561061a57600080fd5b81019080803573ffffffffffffffffffffffffffffffffffffffff16906020019092919080359060200190929190505050611776565b6040518082815260200191505060405180910390f35b34801561067257600080fd5b5061067b6117ed565b604051808215151515815260200191505060405180910390f35b3480156106a157600080fd5b506106ce600480360360208110156106b857600080fd5b81019080803590602001909291905050506119e3565b604051808215151515815260200191505060405180910390f35b3480156106f457600080fd5b5061084f6004803603606081101561070b57600080fd5b81019080803590602001909291908035906020019064010000000081111561073257600080fd5b82018360208201111561074457600080fd5b8035906020019184600183028401116401000000008311171561076657600080fd5b91908080601f016020809104026020016040519081016040528093929190818152602001838380828437600081840152601f19601f820116905080830192505050505050509192919290803590602001906401000000008111156107c957600080fd5b8201836020820111156107db57600080fd5b803590602001918460018302840111640100000000831117156107fd57600080fd5b91908080601f016020809104026020016040519081016040528093929190818152602001838380828437600081840152601f19601f820116905080830192505050505050509192919290505050611bef565b005b34801561085d57600080fd5b506108aa6004803603604081101561087457600080fd5b81019080803573ffffffffffffffffffffffffffffffffffffffff16906020019092919080359060200190929190505050611bf4565b604051808215151515815260200191505060405180910390f35b3480156108d057600080fd5b5061093d600480360360608110156108e757600080fd5b81019080803573ffffffffffffffffffffffffffffffffffffffff169060200190929190803573ffffffffffffffffffffffffffffffffffffffff16906020019092919080359060200190929190505050611c70565b005b34801561094b57600080fd5b50610954611cec565b604051808273ffffffffffffffffffffffffffffffffffffffff1673ffffffffffffffffffffffffffffffffffffffff16815260200191505060405180910390f35b3480156109a257600080fd5b506109cf600480360360208110156109b957600080fd5b8101908080359060200190929190505050611d12565b6040518082815260200191505060405180910390f35b3480156109f157600080fd5b50610a1e60048036036020811015610a0857600080fd5b8101908080359060200190929190505050611d4a565b604051808273ffffffffffffffffffffffffffffffffffffffff1673ffffffffffffffffffffffffffffffffffffffff16815260200191505060405180910390f35b348015610a6c57600080fd5b50610a75611d87565b6040518080602001828103825283818151815260200191508051906020019080838360005b83811015610ab5578082015181840152602081019050610a9a565b50505050905090810190601f168015610ae25780820380516001836020036101000a031916815260200191505b509250505060405180910390f35b348015610afc57600080fd5b50610b3f60048036036020811015610b1357600080fd5b81019080803573ffffffffffffffffffffffffffffffffffffffff169060200190929190505050611e29565b6040518082815260200191505060405180910390f35b348015610b6157600080fd5b50610b6a611f3c565b005b348015610b7857600080fd5b50610bc560048036036040811015610b8f57600080fd5b81019080803573ffffffffffffffffffffffffffffffffffffffff1690602001909291908035906020019092919050505061200c565b604051808215151515815260200191505060405180910390f35b348015610beb57600080fd5b50610bf4612023565b6040518080602001828103825283818151815260200191508051906020019080838360005b83811015610c34578082015181840152602081019050610c19565b50505050905090810190601f168015610c615780820380516001836020036101000a031916815260200191505b509250505060405180910390f35b348015610c7b57600080fd5b50610d3f60048036036040811015610c9257600080fd5b8101908080359060200190640100000000811115610caf57600080fd5b820183602082011115610cc157600080fd5b80359060200191846001830284011164010000000083111715610ce357600080fd5b91908080601f016020809104026020016040519081016040528093929190818152602001838380828437600081840152601f19601f820116905080830192505050505050509192919290803590602001909291905050506120c5565b6040518080602001828103825283818151815260200191508051906020019080838360005b83811015610d7f578082015181840152602081019050610d64565b50505050905090810190601f168015610dac5780820380516001836020036101000a031916815260200191505b509250505060405180910390f35b348015610dc657600080fd5b50610df360048036036020811015610ddd57600080fd5b81019080803590602001909291905050506120fb565b604051808273ffffffffffffffffffffffffffffffffffffffff1673ffffffffffffffffffffffffffffffffffffffff16815260200191505060405180910390f35b348015610e4157600080fd5b50610e9060048036036040811015610e5857600080fd5b81019080803573ffffffffffffffffffffffffffffffffffffffff1690602001909291908035151590602001909291905050506121b3565b005b348015610e9e57600080fd5b50610fa260048036036080811015610eb557600080fd5b81019080803573ffffffffffffffffffffffffffffffffffffffff169060200190929190803573ffffffffffffffffffffffffffffffffffffffff1690602001909291908035906020019092919080359060200190640100000000811115610f1c57600080fd5b820183602082011115610f2e57600080fd5b80359060200191846001830284011164010000000083111715610f5057600080fd5b91908080601f016020809104026020016040519081016040528093929190818152602001838380828437600081840152601f19601f8201169050808301925050505050505091929192905050506122ef565b005b348015610fb057600080fd5b5061101360048036036040811015610fc757600080fd5b81019080803573ffffffffffffffffffffffffffffffffffffffff169060200190929190803573ffffffffffffffffffffffffffffffffffffffff169060200190929190505050612372565b604051808215151515815260200191505060405180910390f35b34801561103957600080fd5b50611042612406565b604051808215151515815260200191505060405180910390f35b600060036000837bffffffffffffffffffffffffffffffffffffffffffffffffffffffff19167bffffffffffffffffffffffffffffffffffffffffffffffffffffffff1916815260200190815260200160002060009054906101000a900460ff169050919050565b606060118054600181600116156101000203166002900480601f01602080910402602001604051908101604052809291908181526020018280546001816001161561010002031660029004801561115c5780601f106111315761010080835404028352916020019161115c565b820191906000526020600020905b81548152906001019060200180831161113f57829003601f168201915b5050505050905090565b60008082141515156111e0576040517f08c379a00000000000000000000000000000000000000000000000000000000081526004018080602001828103825260158152602001807f746f6b656e4964206d7573742062652076616c6964000000000000000000000081525060200191505060405180910390fd5b6005600083815260200190815260200160002060009054906101000a900473ffffffffffffffffffffffffffffffffffffffff169050919050565b600061122682611d4a565b90508073ffffffffffffffffffffffffffffffffffffffff168373ffffffffffffffffffffffffffffffffffffffff16141515156112f2576040517f08c379a00000000000000000000000000000000000000000000000000000000081526004018080602001828103825260218152602001807f4552433732313a20617070726f76616c20746f2063757272656e74206f776e6581526020017f720000000000000000000000000000000000000000000000000000000000000081525060400191505060405180910390fd5b8073ffffffffffffffffffffffffffffffffffffffff163373ffffffffffffffffffffffffffffffffffffffff16148061133257506113318133612372565b5b15156113cc576040517f08c379a00000000000000000000000000000000000000000000000000000000081526004018080602001828103825260388152602001807f4552433732313a20617070726f76652063616c6c6572206973206e6f74206f7781526020017f6e6572206e6f7220617070726f76656420666f7220616c6c000000000000000081525060400191505060405180910390fd5b6113d6838361121b565b505050565b6113e4816125fb565b15156113ef57600080fd5b611401826113fc8361266d565b6127c6565b505050565b3373ffffffffffffffffffffffffffffffffffffffff166000809054906101000a900473ffffffffffffffffffffffffffffffffffffffff1673ffffffffffffffffffffffffffffffffffffffff161415156114ca576040517f08c379a00000000000000000000000000000000000000000000000000000000081526004018080602001828103825260138152602001807f43616c6c6572206973206e6f74206f776e65720000000000000000000000000081525060200191505060405180910390fd5b600073ffffffffffffffffffffffffffffffffffffffff168273ffffffffffffffffffffffffffffffffffffffff1614151515611595576040517f08c379a00000000000000000000000000000000000000000000000000000000081526004018080602001828103825260218152602001807f4e6577206f776e6572206d75737420626520612076616c69642061646472657381526020017f730000000000000000000000000000000000000000000000000000000000000081525060400191505060405180910390fd5b816001600083815260200190815260200160002060000160006101000a81548173ffffffffffffffffffffffffffffffffffffffff021916908373ffffffffffffffffffffffffffffffffffffffff1602179055507f8be0079c531659141344cd1fd0a4f28419497f9722a3daafe3b4186f6b6457e06000809054906101000a900473ffffffffffffffffffffffffffffffffffffffff1683604051808373ffffffffffffffffffffffffffffffffffffffff1673ffffffffffffffffffffffffffffffffffffffff1681526020018273ffffffffffffffffffffffffffffffffffffffff1673ffffffffffffffffffffffffffffffffffffffff1681526020019250505060405180910390a15050565b6000600a80549050905090565b6116bd338261280d565b15156116c857600080fd5b6116d38383836128a2565b808273ffffffffffffffffffffffffffffffffffffffff168473ffffffffffffffffffffffffffffffffffffffff167fddf252ad1be2c89b69c2b068fc378daa952ba7f163c4a11628f55a4df523b3ef60405160405180910390a4505050565b611772828260006040519080825280601f01601f19166020018201604052801561176c5781602001600182028038833980820191505090505b50611bef565b5050565b600061178183611e29565b8210151561178e57600080fd5b600860008473ffffffffffffffffffffffffffffffffffffffff1673ffffffffffffffffffffffffffffffffffffffff168152602001908152602001600020828154811015156117da57fe5b9060005260206000200154905092915050565b60003373ffffffffffffffffffffffffffffffffffffffff166000809054906101000a900473ffffffffffffffffffffffffffffffffffffffff1673ffffffffffffffffffffffffffffffffffffffff161415156118b3576040517f08c379a00000000000000000000000000000000000000000000000000000000081526004018080602001828103825260138152602001807f43616c6c6572206973206e6f74206f776e65720000000000000000000000000081525060200191505060405180910390fd5b600260009054906101000a900460ff1615151561195e576040517f08c379a000000000000000000000000000000000000000000000000000000000815260040180806020018281038252602c8152602001807f70617573656420737461747573206d75737420626520646966666572656e742081526020017f7468616e2063757272656e74000000000000000000000000000000000000000081525060400191505060405180910390fd5b6001600260006101000a81548160ff0219169083151502179055507f62e78cea01bee320cd4e420270b5ea74000d11b0c9f74754ebdbfc544b05a25833604051808273ffffffffffffffffffffffffffffffffffffffff1673ffffffffffffffffffffffffffffffffffffffff16815260200191505060405180910390a16001905090565b60003373ffffffffffffffffffffffffffffffffffffffff166018600084815260200190815260200160002060010160009054906101000a900473ffffffffffffffffffffffffffffffffffffffff1673ffffffffffffffffffffffffffffffffffffffff1614151515611abf576040517f08c379a00000000000000000000000000000000000000000000000000000000081526004018080602001828103825260178152602001807f536f6c7574696f6e206973206e6f7420756e697175652e00000000000000000081525060200191505060405180910390fd5b6060604051908101604052808381526020013373ffffffffffffffffffffffffffffffffffffffff16815260200160011515815250601860008481526020019081526020016000206000820151816000015560208201518160010160006101000a81548173ffffffffffffffffffffffffffffffffffffffff021916908373ffffffffffffffffffffffffffffffffffffffff16021790555060408201518160010160146101000a81548160ff0219169083151502179055509050507f01d5f9f5a890e5385b4f1d07d3c8c1f739f82bb433ed461d4551b7af3edc63408233604051808381526020018273ffffffffffffffffffffffffffffffffffffffff1673ffffffffffffffffffffffffffffffffffffffff1681526020019250505060405180910390a160019050919050565b505050565b6000611c0083836128c6565b611c66606060405190810160405280603f81526020017f68747470733a2f2f73332d75732d776573742d322e616d617a6f6e6177732e6381526020017f6f6d2f756461636974792d626c6f636b636861696e2f63617073746f6e652f00815250836113db565b6001905092915050565b611c8c83838360206040519081016040528060008152506122ef565b808273ffffffffffffffffffffffffffffffffffffffff168473ffffffffffffffffffffffffffffffffffffffff167fddf252ad1be2c89b69c2b068fc378daa952ba7f163c4a11628f55a4df523b3ef60405160405180910390a4505050565b601760009054906101000a900473ffffffffffffffffffffffffffffffffffffffff1681565b6000611d1c6116a6565b82101515611d2957600080fd5b600a82815481101515611d3857fe5b90600052602060002001549050919050565b60006004600083815260200190815260200160002060009054906101000a900473ffffffffffffffffffffffffffffffffffffffff169050919050565b606060138054600181600116156101000203166002900480601f016020809104026020016040519081016040528092919081815260200182805460018160011615610100020316600290048015611e1f5780601f10611df457610100808354040283529160200191611e1f565b820191906000526020600020905b815481529060010190602001808311611e0257829003601f168201915b5050505050905090565b60008073ffffffffffffffffffffffffffffffffffffffff168273ffffffffffffffffffffffffffffffffffffffff1614151515611ef5576040517f08c379a000000000000000000000000000000000000000000000000000000000815260040180806020018281038252602a8152602001807f4552433732313a2062616c616e636520717565727920666f7220746865207a6581526020017f726f20616464726573730000000000000000000000000000000000000000000081525060400191505060405180910390fd5b601560008373ffffffffffffffffffffffffffffffffffffffff1673ffffffffffffffffffffffffffffffffffffffff168152602001908152602001600020549050919050565b3373ffffffffffffffffffffffffffffffffffffffff166000809054906101000a900473ffffffffffffffffffffffffffffffffffffffff1673ffffffffffffffffffffffffffffffffffffffff16141515612000576040517f08c379a00000000000000000000000000000000000000000000000000000000081526004018080602001828103825260138152602001807f43616c6c6572206973206e6f74206f776e65720000000000000000000000000081525060200191505060405180910390fd5b61200a60006128e7565b565b60006120188383611bf4565b506001905092915050565b606060128054600181600116156101000203166002900480601f0160208091040260200160405190810160405280929190818152602001828054600181600116156101000203166002900480156120bb5780601f10612090576101008083540402835291602001916120bb565b820191906000526020600020905b81548152906001019060200180831161209e57829003601f168201915b5050505050905090565b60606120d0826125fb565b15156120db57600080fd5b60606120ef846120ea8561266d565b6127c6565b90508091505092915050565b6000808214151515612175576040517f08c379a000000000000000000000000000000000000000000000000000000000815260040180806020018281038252601e8152602001807f506c6561736520656e74657220616e2076616c696420746f6b656e204964000081525060200191505060405180910390fd5b6001600083815260200190815260200160002060000160009054906101000a900473ffffffffffffffffffffffffffffffffffffffff169050919050565b3373ffffffffffffffffffffffffffffffffffffffff168273ffffffffffffffffffffffffffffffffffffffff16141515156121ee57600080fd5b80600760003373ffffffffffffffffffffffffffffffffffffffff1673ffffffffffffffffffffffffffffffffffffffff16815260200190815260200160002060008473ffffffffffffffffffffffffffffffffffffffff1673ffffffffffffffffffffffffffffffffffffffff16815260200190815260200160002060006101000a81548160ff0219169083151502179055508173ffffffffffffffffffffffffffffffffffffffff163373ffffffffffffffffffffffffffffffffffffffff167f17307eab39ab6107e8899845ad3d59bd9653f200f220920489ca2b5937696c3183604051808215151515815260200191505060405180910390a35050565b6122fa8484846116b3565b612306848484846129e8565b151561231157600080fd5b818373ffffffffffffffffffffffffffffffffffffffff168573ffffffffffffffffffffffffffffffffffffffff167fddf252ad1be2c89b69c2b068fc378daa952ba7f163c4a11628f55a4df523b3ef60405160405180910390a450505050565b6000600760008473ffffffffffffffffffffffffffffffffffffffff1673ffffffffffffffffffffffffffffffffffffffff16815260200190815260200160002060008373ffffffffffffffffffffffffffffffffffffffff1673ffffffffffffffffffffffffffffffffffffffff16815260200190815260200160002060009054906101000a900460ff16905092915050565b60003373ffffffffffffffffffffffffffffffffffffffff166000809054906101000a900473ffffffffffffffffffffffffffffffffffffffff1673ffffffffffffffffffffffffffffffffffffffff161415156124cc576040517f08c379a00000000000000000000000000000000000000000000000000000000081526004018080602001828103825260138152602001807f43616c6c6572206973206e6f74206f776e65720000000000000000000000000081525060200191505060405180910390fd5b600260009054906101000a900460ff161515612576576040517f08c379a000000000000000000000000000000000000000000000000000000000815260040180806020018281038252602c8152602001807f70617573656420737461747573206d75737420626520646966666572656e742081526020017f7468616e2063757272656e74000000000000000000000000000000000000000081525060400191505060405180910390fd5b6000600260006101000a81548160ff0219169083151502179055507fff2b959f2bcdb44c7ecb4b16dae055431019d7350607125cfc2b74a06632c90e33604051808273ffffffffffffffffffffffffffffffffffffffff1673ffffffffffffffffffffffffffffffffffffffff16815260200191505060405180910390a16001905090565b6000806004600084815260200190815260200160002060009054906101000a900473ffffffffffffffffffffffffffffffffffffffff169050600073ffffffffffffffffffffffffffffffffffffffff168173ffffffffffffffffffffffffffffffffffffffff161415915050919050565b606060008214156126b5576040805190810160405280600181526020017f300000000000000000000000000000000000000000000000000000000000000081525090506127c1565b600082905060005b6000821415156126e3578080600101915050600a828115156126db57fe5b0491506126bd565b6060816040519080825280601f01601f1916602001820160405280156127185781602001600182028038833980820191505090505b50905060006001830390505b6000861415156127b957600a8681151561273a57fe5b066030017f01000000000000000000000000000000000000000000000000000000000000000282828060019003935081518110151561277557fe5b9060200101907effffffffffffffffffffffffffffffffffffffffffffffffffffffffffffff1916908160001a905350600a868115156127b157fe5b049550612724565b819450505050505b919050565b60606128058383602060405190810160405280600081525060206040519081016040528060008152506020604051908101604052806000815250612c0b565b905092915050565b60008061281983611d4a565b90508073ffffffffffffffffffffffffffffffffffffffff168473ffffffffffffffffffffffffffffffffffffffff16148061288857508373ffffffffffffffffffffffffffffffffffffffff1661287084611166565b73ffffffffffffffffffffffffffffffffffffffff16145b8061289957506128988185612372565b5b91505092915050565b6128ad838383613026565b6128b7838261337b565b6128c1828261351f565b505050565b6128d082826135e6565b6128da828261351f565b6128e381613781565b5050565b60008060009054906101000a900473ffffffffffffffffffffffffffffffffffffffff169050816000806101000a81548173ffffffffffffffffffffffffffffffffffffffff021916908373ffffffffffffffffffffffffffffffffffffffff1602179055507f8be0079c531659141344cd1fd0a4f28419497f9722a3daafe3b4186f6b6457e08183604051808373ffffffffffffffffffffffffffffffffffffffff1673ffffffffffffffffffffffffffffffffffffffff1681526020018273ffffffffffffffffffffffffffffffffffffffff1673ffffffffffffffffffffffffffffffffffffffff1681526020019250505060405180910390a15050565b6000612a098473ffffffffffffffffffffffffffffffffffffffff166137cd565b1515612a185760019050612c03565b60008473ffffffffffffffffffffffffffffffffffffffff1663150b7a02338887876040518563ffffffff167c0100000000000000000000000000000000000000000000000000000000028152600401808573ffffffffffffffffffffffffffffffffffffffff1673ffffffffffffffffffffffffffffffffffffffff1681526020018473ffffffffffffffffffffffffffffffffffffffff1673ffffffffffffffffffffffffffffffffffffffff16815260200183815260200180602001828103825283818151815260200191508051906020019080838360005b83811015612b0f578082015181840152602081019050612af4565b50505050905090810190601f168015612b3c5780820380516001836020036101000a031916815260200191505b5095505050505050602060405180830381600087803b158015612b5e57600080fd5b505af1158015612b72573d6000803e3d6000fd5b505050506040513d6020811015612b8857600080fd5b8101908080519060200190929190505050905063150b7a027c0100000000000000000000000000000000000000000000000000000000027bffffffffffffffffffffffffffffffffffffffffffffffffffffffff1916817bffffffffffffffffffffffffffffffffffffffffffffffffffffffff1916149150505b949350505050565b6060808690506060869050606086905060608690506060869050606081518351855187518951010101016040519080825280601f01601f191660200182016040528015612c675781602001600182028038833980820191505090505b509050606081905060008090506000809050600090505b8851811015612d31578881815181101515612c9557fe5b9060200101517f010000000000000000000000000000000000000000000000000000000000000090047f0100000000000000000000000000000000000000000000000000000000000000028383806001019450815181101515612cf457fe5b9060200101907effffffffffffffffffffffffffffffffffffffffffffffffffffffffffffff1916908160001a9053508080600101915050612c7e565b600090505b8751811015612de9578781815181101515612d4d57fe5b9060200101517f010000000000000000000000000000000000000000000000000000000000000090047f0100000000000000000000000000000000000000000000000000000000000000028383806001019450815181101515612dac57fe5b9060200101907effffffffffffffffffffffffffffffffffffffffffffffffffffffffffffff1916908160001a9053508080600101915050612d36565b600090505b8651811015612ea1578681815181101515612e0557fe5b9060200101517f010000000000000000000000000000000000000000000000000000000000000090047f0100000000000000000000000000000000000000000000000000000000000000028383806001019450815181101515612e6457fe5b9060200101907effffffffffffffffffffffffffffffffffffffffffffffffffffffffffffff1916908160001a9053508080600101915050612dee565b600090505b8551811015612f59578581815181101515612ebd57fe5b9060200101517f010000000000000000000000000000000000000000000000000000000000000090047f0100000000000000000000000000000000000000000000000000000000000000028383806001019450815181101515612f1c57fe5b9060200101907effffffffffffffffffffffffffffffffffffffffffffffffffffffffffffff1916908160001a9053508080600101915050612ea6565b600090505b8451811015613011578481815181101515612f7557fe5b9060200101517f010000000000000000000000000000000000000000000000000000000000000090047f0100000000000000000000000000000000000000000000000000000000000000028383806001019450815181101515612fd457fe5b9060200101907effffffffffffffffffffffffffffffffffffffffffffffffffffffffffffff1916908160001a9053508080600101915050612f5e565b82995050505050505050505095945050505050565b6004600082815260200190815260200160002060009054906101000a900473ffffffffffffffffffffffffffffffffffffffff1673ffffffffffffffffffffffffffffffffffffffff168373ffffffffffffffffffffffffffffffffffffffff16141515613122576040517f08c379a00000000000000000000000000000000000000000000000000000000081526004018080602001828103825260318152602001807f66726f6d2061646472657373206d75737420626520746865206f776e6572206f81526020017f662074686520676976656e20746f6b656e00000000000000000000000000000081525060400191505060405180910390fd5b600073ffffffffffffffffffffffffffffffffffffffff168273ffffffffffffffffffffffffffffffffffffffff16141515156131ed576040517f08c379a00000000000000000000000000000000000000000000000000000000081526004018080602001828103825260278152602001807f53656e64696e672061646472657373206d75737420626520612076616c69642081526020017f616464726573730000000000000000000000000000000000000000000000000081525060400191505060405180910390fd5b6001600760008573ffffffffffffffffffffffffffffffffffffffff1673ffffffffffffffffffffffffffffffffffffffff16815260200190815260200160002060008473ffffffffffffffffffffffffffffffffffffffff1673ffffffffffffffffffffffffffffffffffffffff16815260200190815260200160002060006101000a81548160ff021916908315150217905550816004600083815260200190815260200160002060006101000a81548173ffffffffffffffffffffffffffffffffffffffff021916908373ffffffffffffffffffffffffffffffffffffffff16021790555061331b600660008473ffffffffffffffffffffffffffffffffffffffff1673ffffffffffffffffffffffffffffffffffffffff168152602001908152602001600020613819565b808273ffffffffffffffffffffffffffffffffffffffff168473ffffffffffffffffffffffffffffffffffffffff167fddf252ad1be2c89b69c2b068fc378daa952ba7f163c4a11628f55a4df523b3ef60405160405180910390a4505050565b60006133d36001600860008673ffffffffffffffffffffffffffffffffffffffff1673ffffffffffffffffffffffffffffffffffffffff1681526020019081526020016000208054905061382f90919063ffffffff16565b905060006009600084815260200190815260200160002054905081811415156134c6576000600860008673ffffffffffffffffffffffffffffffffffffffff1673ffffffffffffffffffffffffffffffffffffffff1681526020019081526020016000208381548110151561344457fe5b9060005260206000200154905080600860008773ffffffffffffffffffffffffffffffffffffffff1673ffffffffffffffffffffffffffffffffffffffff1681526020019081526020016000208381548110151561349e57fe5b9060005260206000200181905550816009600083815260200190815260200160002081905550505b600860008573ffffffffffffffffffffffffffffffffffffffff1673ffffffffffffffffffffffffffffffffffffffff168152602001908152602001600020805480919060019003613518919061393b565b5050505050565b600860008373ffffffffffffffffffffffffffffffffffffffff1673ffffffffffffffffffffffffffffffffffffffff168152602001908152602001600020805490506009600083815260200190815260200160002081905550600860008373ffffffffffffffffffffffffffffffffffffffff1673ffffffffffffffffffffffffffffffffffffffff1681526020019081526020016000208190806001815401808255809150509060018203906000526020600020016000909192909190915055505050565b6135ef816125fb565b1515613689576040517f08c379a00000000000000000000000000000000000000000000000000000000081526004018080602001828103825260328152602001807f746f6b656e496420616c726561647920657869737473206f7220676976656e2081526020017f6164647265737320697320696e76616c6964000000000000000000000000000081525060400191505060405180910390fd5b816004600083815260200190815260200160002060006101000a81548173ffffffffffffffffffffffffffffffffffffffff021916908373ffffffffffffffffffffffffffffffffffffffff160217905550613722600660008473ffffffffffffffffffffffffffffffffffffffff1673ffffffffffffffffffffffffffffffffffffffff168152602001908152602001600020613819565b808273ffffffffffffffffffffffffffffffffffffffff163373ffffffffffffffffffffffffffffffffffffffff167fddf252ad1be2c89b69c2b068fc378daa952ba7f163c4a11628f55a4df523b3ef60405160405180910390a45050565b600a80549050600b600083815260200190815260200160002081905550600a81908060018154018082558091505090600182039060005260206000200160009091929091909150555050565b60008060007fc5d2460186f7233c927e7db2dcc703c0e500b653ca82273b7bfad8045d85a4706001029050833f9150808214158015613810575060006001028214155b92505050919050565b6001816000016000828254019250508190555050565b600061387183836040805190810160405280601e81526020017f536166654d6174683a207375627472616374696f6e206f766572666c6f770000815250613879565b905092915050565b60008383111582901515613928576040517f08c379a00000000000000000000000000000000000000000000000000000000081526004018080602001828103825283818151815260200191508051906020019080838360005b838110156138ed5780820151818401526020810190506138d2565b50505050905090810190601f16801561391a5780820380516001836020036101000a031916815260200191505b509250505060405180910390fd5b5060008385039050809150509392505050565b815481835581811115613962578183600052602060002091820191016139619190613967565b5b505050565b61398991905b8082111561398557600081600090555060010161396d565b5090565b9056fea165627a7a723058201d2fdc90f88d0a726d377dfd39adbcaa6b923934fde5304256668bb224aeea4a0029",
  "source": "pragma solidity >=0.5.0;\nimport \"../../zokrates/code/square/verifier.sol\";\nimport \"./ERC721Mintable.sol\";\n\n\n\n\n// TODO define another contract named SolnSquareVerifier that inherits from your ERC721Mintable class\ncontract SolnSquareVerifier is ERC721Full{\n    \n    // Zokrates generated solidity contract\n    Verifier public squareVerifier;\n\n \n    constructor(address verifierAddress, string memory name, string memory symbol) \n    ERC721Full(name, symbol)\n        public\n    {   \n        squareVerifier = Verifier(verifierAddress);\n    }\n    \n// TODO define a solutions struct that can hold an index & an address\nstruct Solution{\n    bytes32 index;\n    address account;\n    bool isExist;\n}\n\n// TODO define an array of the above struct\n\n\n// TODO define a mapping to store unique solutions submitted\nmapping (bytes32 => Solution) uniqueSolutions;\n\n\n// TODO Create an event to emit when a solution is added\nevent SolutionAdded(bytes32 index, address account);\n\n \n// TODO Create a function to add the solutions to the array and emit the event\nfunction addSolutionsToArray(bytes32 key) public returns(bool){\n    require(uniqueSolutions[key].account != msg.sender, \"Solution is not unique.\");\n    uniqueSolutions[key] = Solution({index: key, account: msg.sender, isExist: true});\n    emit SolutionAdded(key, msg.sender);\n    return true;\n}\n\n\n// TODO Create a function to mint new NFT only after the solution has been verified\nfunction mintToken(\n            address to,\n            uint256 tokenId\n            // uint[2] memory a,\n            // uint[2][2] memory b,\n            // uint[2] memory c,\n            // uint[2] memory input)\n)               \n             public\n             returns (bool)\n              {\n        mint(to,tokenId);\n        return true;\n    // bytes32 key = keccak256(abi.encodePacked(a, b, c, input));\n\n    // if(!uniqueSolutions[key].isExist){\n    //   bool verification = squareVerifier.verifyTx(a, b, c,input);\n\n    //     if(verification){\n    //         addSolutionsToArray(key);\n    //         // require(index < totalSupply(), \"Invalid Token index\"); \n    //         //  - make sure you handle metadata as well as tokenSuplly\n    //     }\n    //   }\n    }\n}",
  "sourcePath": "C:/projects/Blockchain-Capstone-NFT/eth-contracts/contracts/SolnSquareVerifier.sol",
  "compiler": {
    "name": "solc",
    "version": "0.5.0+commit.1d4f565a.Emscripten.clang"
  },
  "schemaVersion": "3.0.9",
  "updatedAt": "2021-07-27T19:40:07.689Z",
  "devdoc": {
    "methods": {
      "isApprovedForAll(address,address)": {
        "details": "Tells whether an operator is approved by a given owner",
        "params": {
          "operator": "operator address which you want to query the approval of",
          "owner": "owner address which you want to query the approval of"
        },
        "return": "bool whether the given operator is approved by the given owner"
      },
      "setApprovalForAll(address,bool)": {
        "details": "Sets or unsets the approval of a given operator An operator is allowed to transfer all tokens of the sender on their behalf",
        "params": {
          "approved": "representing the status of the approval to be set",
          "to": "operator address to set the approval"
        }
      },
      "supportsInterface(bytes4)": {
        "details": "implement supportsInterface(bytes4) using a lookup table"
      },
      "tokenByIndex(uint256)": {
        "details": "Gets the token ID at a given index of all the tokens in this contract Reverts if the index is greater or equal to the total number of tokens",
        "params": {
          "index": "uint256 representing the index to be accessed of the tokens list"
        },
        "return": "uint256 token ID at the given index of the tokens list"
      },
      "tokenOfOwnerByIndex(address,uint256)": {
        "details": "Gets the token ID at a given index of the tokens list of the requested owner",
        "params": {
          "index": "uint256 representing the index to be accessed of the requested tokens list",
          "owner": "address owning the tokens list to be accessed"
        },
        "return": "uint256 token ID at the given index of the tokens list owned by the requested address"
      },
      "totalSupply()": {
        "details": "Gets the total amount of tokens stored by the contract",
        "return": "uint256 representing the total amount of tokens"
      }
    }
  },
  "userdoc": {
    "methods": {}
  }
}