{
  "contractName": "SolnSquareVerifier",
  "abi": [
    {
      "constant": true,
      "inputs": [
        {
          "name": "tokenId",
          "type": "uint256"
        }
      ],
      "name": "name",
      "outputs": [
        {
          "name": "",
          "type": "string"
        }
      ],
      "payable": false,
      "stateMutability": "view",
      "type": "function"
    },
    {
      "constant": true,
      "inputs": [
        {
          "name": "interfaceId",
          "type": "bytes4"
        }
      ],
      "name": "supportsInterface",
      "outputs": [
        {
          "name": "",
          "type": "bool"
        }
      ],
      "payable": false,
      "stateMutability": "view",
      "type": "function"
    },
    {
      "constant": true,
      "inputs": [
        {
          "name": "tokenId",
          "type": "uint256"
        }
      ],
      "name": "getApproved",
      "outputs": [
        {
          "name": "",
          "type": "address"
        }
      ],
      "payable": false,
      "stateMutability": "view",
      "type": "function"
    },
    {
      "constant": false,
      "inputs": [
        {
          "name": "to",
          "type": "address"
        },
        {
          "name": "tokenId",
          "type": "uint256"
        }
      ],
      "name": "approve",
      "outputs": [],
      "payable": false,
      "stateMutability": "nonpayable",
      "type": "function"
    },
    {
      "constant": false,
      "inputs": [
        {
          "name": "newOwner",
          "type": "address"
        },
        {
          "name": "tokenId",
          "type": "uint256"
        }
      ],
      "name": "transferOwnership",
      "outputs": [],
      "payable": false,
      "stateMutability": "nonpayable",
      "type": "function"
    },
    {
      "constant": true,
      "inputs": [],
      "name": "totalSupply",
      "outputs": [
        {
          "name": "",
          "type": "uint256"
        }
      ],
      "payable": false,
      "stateMutability": "view",
      "type": "function"
    },
    {
      "constant": false,
      "inputs": [
        {
          "name": "from",
          "type": "address"
        },
        {
          "name": "to",
          "type": "address"
        },
        {
          "name": "tokenId",
          "type": "uint256"
        }
      ],
      "name": "transferFrom",
      "outputs": [],
      "payable": false,
      "stateMutability": "nonpayable",
      "type": "function"
    },
    {
      "constant": false,
      "inputs": [
        {
          "name": "_myid",
          "type": "bytes32"
        },
        {
          "name": "_result",
          "type": "string"
        }
      ],
      "name": "__callback",
      "outputs": [],
      "payable": false,
      "stateMutability": "nonpayable",
      "type": "function"
    },
    {
      "constant": true,
      "inputs": [
        {
          "name": "owner",
          "type": "address"
        },
        {
          "name": "index",
          "type": "uint256"
        }
      ],
      "name": "tokenOfOwnerByIndex",
      "outputs": [
        {
          "name": "",
          "type": "uint256"
        }
      ],
      "payable": false,
      "stateMutability": "view",
      "type": "function"
    },
    {
      "constant": false,
      "inputs": [],
      "name": "setPaused",
      "outputs": [
        {
          "name": "",
          "type": "bool"
        }
      ],
      "payable": false,
      "stateMutability": "nonpayable",
      "type": "function"
    },
    {
      "constant": false,
      "inputs": [
        {
          "name": "_myid",
          "type": "bytes32"
        },
        {
          "name": "_result",
          "type": "string"
        },
        {
          "name": "_proof",
          "type": "bytes"
        }
      ],
      "name": "__callback",
      "outputs": [],
      "payable": false,
      "stateMutability": "nonpayable",
      "type": "function"
    },
    {
      "constant": false,
      "inputs": [
        {
          "name": "to",
          "type": "address"
        },
        {
          "name": "tokenId",
          "type": "uint256"
        }
      ],
      "name": "mint",
      "outputs": [
        {
          "name": "",
          "type": "bool"
        }
      ],
      "payable": false,
      "stateMutability": "nonpayable",
      "type": "function"
    },
    {
      "constant": false,
      "inputs": [
        {
          "name": "from",
          "type": "address"
        },
        {
          "name": "to",
          "type": "address"
        },
        {
          "name": "tokenId",
          "type": "uint256"
        }
      ],
      "name": "safeTransferFrom",
      "outputs": [],
      "payable": false,
      "stateMutability": "nonpayable",
      "type": "function"
    },
    {
      "constant": true,
      "inputs": [],
      "name": "squareVerifier",
      "outputs": [
        {
          "name": "",
          "type": "address"
        }
      ],
      "payable": false,
      "stateMutability": "view",
      "type": "function"
    },
    {
      "constant": true,
      "inputs": [
        {
          "name": "tokenId",
          "type": "uint256"
        }
      ],
      "name": "symbol",
      "outputs": [
        {
          "name": "",
          "type": "string"
        }
      ],
      "payable": false,
      "stateMutability": "view",
      "type": "function"
    },
    {
      "constant": true,
      "inputs": [
        {
          "name": "index",
          "type": "uint256"
        }
      ],
      "name": "tokenByIndex",
      "outputs": [
        {
          "name": "",
          "type": "uint256"
        }
      ],
      "payable": false,
      "stateMutability": "view",
      "type": "function"
    },
    {
      "constant": true,
      "inputs": [
        {
          "name": "tokenId",
          "type": "uint256"
        }
      ],
      "name": "ownerOf",
      "outputs": [
        {
          "name": "",
          "type": "address"
        }
      ],
      "payable": false,
      "stateMutability": "view",
      "type": "function"
    },
    {
      "constant": true,
      "inputs": [
        {
          "name": "owner",
          "type": "address"
        }
      ],
      "name": "balanceOf",
      "outputs": [
        {
          "name": "",
          "type": "uint256"
        }
      ],
      "payable": false,
      "stateMutability": "view",
      "type": "function"
    },
    {
      "constant": false,
      "inputs": [],
      "name": "setOperational",
      "outputs": [
        {
          "name": "",
          "type": "bool"
        }
      ],
      "payable": false,
      "stateMutability": "nonpayable",
      "type": "function"
    },
    {
      "constant": false,
      "inputs": [
        {
          "name": "to",
          "type": "address"
        },
        {
          "name": "approved",
          "type": "bool"
        }
      ],
      "name": "setApprovalForAll",
      "outputs": [],
      "payable": false,
      "stateMutability": "nonpayable",
      "type": "function"
    },
    {
      "constant": true,
      "inputs": [
        {
          "name": "tokenId",
          "type": "uint256"
        }
      ],
      "name": "baseTokenURI",
      "outputs": [
        {
          "name": "",
          "type": "string"
        }
      ],
      "payable": false,
      "stateMutability": "view",
      "type": "function"
    },
    {
      "constant": false,
      "inputs": [
        {
          "name": "from",
          "type": "address"
        },
        {
          "name": "to",
          "type": "address"
        },
        {
          "name": "tokenId",
          "type": "uint256"
        },
        {
          "name": "_data",
          "type": "bytes"
        }
      ],
      "name": "safeTransferFrom",
      "outputs": [],
      "payable": false,
      "stateMutability": "nonpayable",
      "type": "function"
    },
    {
      "constant": false,
      "inputs": [
        {
          "name": "tokenId",
          "type": "uint256"
        }
      ],
      "name": "setTokenURI",
      "outputs": [],
      "payable": false,
      "stateMutability": "nonpayable",
      "type": "function"
    },
    {
      "constant": true,
      "inputs": [
        {
          "name": "tokenId",
          "type": "uint256"
        }
      ],
      "name": "getOwner",
      "outputs": [
        {
          "name": "",
          "type": "address"
        }
      ],
      "payable": false,
      "stateMutability": "view",
      "type": "function"
    },
    {
      "constant": true,
      "inputs": [
        {
          "name": "owner",
          "type": "address"
        },
        {
          "name": "operator",
          "type": "address"
        }
      ],
      "name": "isApprovedForAll",
      "outputs": [
        {
          "name": "",
          "type": "bool"
        }
      ],
      "payable": false,
      "stateMutability": "view",
      "type": "function"
    },
    {
      "inputs": [
        {
          "name": "verifierAddress",
          "type": "address"
        }
      ],
      "payable": false,
      "stateMutability": "nonpayable",
      "type": "constructor"
    },
    {
      "anonymous": false,
      "inputs": [
        {
          "indexed": false,
          "name": "index",
          "type": "bytes32"
        },
        {
          "indexed": false,
          "name": "account",
          "type": "address"
        }
      ],
      "name": "SolutionAdded",
      "type": "event"
    },
    {
      "anonymous": false,
      "inputs": [
        {
          "indexed": true,
          "name": "from",
          "type": "address"
        },
        {
          "indexed": true,
          "name": "to",
          "type": "address"
        },
        {
          "indexed": true,
          "name": "tokenId",
          "type": "uint256"
        }
      ],
      "name": "Transfer",
      "type": "event"
    },
    {
      "anonymous": false,
      "inputs": [
        {
          "indexed": true,
          "name": "owner",
          "type": "address"
        },
        {
          "indexed": true,
          "name": "approved",
          "type": "address"
        },
        {
          "indexed": true,
          "name": "tokenId",
          "type": "uint256"
        }
      ],
      "name": "Approval",
      "type": "event"
    },
    {
      "anonymous": false,
      "inputs": [
        {
          "indexed": true,
          "name": "owner",
          "type": "address"
        },
        {
          "indexed": true,
          "name": "operator",
          "type": "address"
        },
        {
          "indexed": false,
          "name": "approved",
          "type": "bool"
        }
      ],
      "name": "ApprovalForAll",
      "type": "event"
    },
    {
      "anonymous": false,
      "inputs": [
        {
          "indexed": false,
          "name": "account",
          "type": "address"
        }
      ],
      "name": "Paused",
      "type": "event"
    },
    {
      "anonymous": false,
      "inputs": [
        {
          "indexed": false,
          "name": "account",
          "type": "address"
        }
      ],
      "name": "UnPaused",
      "type": "event"
    },
    {
      "anonymous": false,
      "inputs": [
        {
          "indexed": false,
          "name": "toOwner",
          "type": "address"
        }
      ],
      "name": "TransferOwnership",
      "type": "event"
    },
    {
      "constant": false,
      "inputs": [
        {
          "name": "key",
          "type": "bytes32"
        }
      ],
      "name": "addSolutionsToArray",
      "outputs": [
        {
          "name": "",
          "type": "bool"
        }
      ],
      "payable": false,
      "stateMutability": "nonpayable",
      "type": "function"
    },
    {
      "constant": false,
      "inputs": [
        {
          "name": "tokenId",
          "type": "uint256"
        },
        {
          "name": "index",
          "type": "uint256"
        },
        {
          "name": "a",
          "type": "uint256[2]"
        },
        {
          "name": "b",
          "type": "uint256[2][2]"
        },
        {
          "name": "c",
          "type": "uint256[2]"
        },
        {
          "name": "input",
          "type": "uint256[2]"
        }
      ],
      "name": "mintToken",
      "outputs": [
        {
          "name": "",
          "type": "bool"
        }
      ],
      "payable": false,
      "stateMutability": "nonpayable",
      "type": "function"
    }
  ],
  "bytecode": "0x60806040523480156200001157600080fd5b5060405160208062004277833981018060405260208110156200003357600080fd5b810190808051906020019092919050505060148054600181600116156101000203166002900480601f016020809104026020016040519081016040528092919081815260200182805460018160011615610100020316600290048015620000de5780601f10620000b257610100808354040283529160200191620000de565b820191906000526020600020905b815481529060010190602001808311620000c057829003601f168201915b505050505060158054600181600116156101000203166002900480601f0160208091040260200160405190810160405280929190818152602001828054600181600116156101000203166002900480156200017d5780601f1062000151576101008083540402835291602001916200017d565b820191906000526020600020905b8154815290600101906020018083116200015f57829003601f168201915b505050505060168054600181600116156101000203166002900480601f0160208091040260200160405190810160405280929190818152602001828054600181600116156101000203166002900480156200021c5780601f10620001f0576101008083540402835291602001916200021c565b820191906000526020600020905b815481529060010190602001808311620001fe57829003601f168201915b505050505033600160006101000a81548173ffffffffffffffffffffffffffffffffffffffff021916908373ffffffffffffffffffffffffffffffffffffffff1602179055507fcfaaa26691e16e66e73290fc725eee1a6b4e0e693a1640484937aac25ffb55a4600160009054906101000a900473ffffffffffffffffffffffffffffffffffffffff16604051808273ffffffffffffffffffffffffffffffffffffffff1673ffffffffffffffffffffffffffffffffffffffff16815260200191505060405180910390a16000600160146101000a81548160ff0219169083151502179055506200033f6301ffc9a77c0100000000000000000000000000000000000000000000000000000000026200059d640100000000026401000000009004565b6200037c6380ac58cd7c0100000000000000000000000000000000000000000000000000000000026200059d640100000000026401000000009004565b620003b963780e9d637c0100000000000000000000000000000000000000000000000000000000026200059d640100000000026401000000009004565b8260109080519060200190620003d19291906200065c565b508160119080519060200190620003ea9291906200065c565b508060129080519060200190620004039291906200065c565b5062000441635b5e139f7c0100000000000000000000000000000000000000000000000000000000026200059d640100000000026401000000009004565b5050506040805190810160405280600c81526020017f52616669756c20546f6b656e000000000000000000000000000000000000000081525060179080519060200190620004919291906200065c565b506040805190810160405280600381526020017f524854000000000000000000000000000000000000000000000000000000000081525060189080519060200190620004df9291906200065c565b50606060405190810160405280603f81526020017f68747470733a2f2f73332d75732d776573742d322e616d617a6f6e6177732e6381526020017f6f6d2f756461636974792d626c6f636b636861696e2f63617073746f6e652f0081525060199080519060200190620005549291906200065c565b5080601a60006101000a81548173ffffffffffffffffffffffffffffffffffffffff021916908373ffffffffffffffffffffffffffffffffffffffff160217905550506200070b565b63ffffffff7c010000000000000000000000000000000000000000000000000000000002817bffffffffffffffffffffffffffffffffffffffffffffffffffffffff191614151515620005ef57600080fd5b600160026000837bffffffffffffffffffffffffffffffffffffffffffffffffffffffff19167bffffffffffffffffffffffffffffffffffffffffffffffffffffffff1916815260200190815260200160002060006101000a81548160ff02191690831515021790555050565b828054600181600116156101000203166002900490600052602060002090601f016020900481019282601f106200069f57805160ff1916838001178555620006d0565b82800160010185558215620006d0579182015b82811115620006cf578251825591602001919060010190620006b2565b5b509050620006df9190620006e3565b5090565b6200070891905b8082111562000704576000816000905550600101620006ea565b5090565b90565b613b5c806200071b6000396000f3fe60806040526004361061015e576000357c0100000000000000000000000000000000000000000000000000000000900463ffffffff168062ad800c1461016357806301ffc9a714610217578063081812fc14610289578063095ea7b3146103045780630a2766801461035f57806318160ddd146103ba57806323b872dd146103e557806327dc297e146104605780632f745c59146105325780633474e94e146105a157806337a66d85146105f457806338bbfa501461062357806340c10f191461078c57806342842e0e146107ff5780634c1b1c931461087a5780634e41a1fb146108d15780634f6ccce7146109855780636352211e146109d457806370a0823114610a4f57806382e73ad514610ab4578063a22cb46514610ae3578063a689a91414610b40578063b88d4fde14610bf4578063bff2612614610d06578063c41a360a14610d41578063e07d8cd814610dbc578063e985e9c514610f56575b600080fd5b34801561016f57600080fd5b5061019c6004803603602081101561018657600080fd5b8101908080359060200190929190505050610fdf565b6040518080602001828103825283818151815260200191508051906020019080838360005b838110156101dc5780820151818401526020810190506101c1565b50505050905090810190601f1680156102095780820380516001836020036101000a031916815260200191505b509250505060405180910390f35b34801561022357600080fd5b5061026f6004803603602081101561023a57600080fd5b8101908080357bffffffffffffffffffffffffffffffffffffffffffffffffffffffff191690602001909291905050506110ab565b604051808215151515815260200191505060405180910390f35b34801561029557600080fd5b506102c2600480360360208110156102ac57600080fd5b8101908080359060200190929190505050611113565b604051808273ffffffffffffffffffffffffffffffffffffffff1673ffffffffffffffffffffffffffffffffffffffff16815260200191505060405180910390f35b34801561031057600080fd5b5061035d6004803603604081101561032757600080fd5b81019080803573ffffffffffffffffffffffffffffffffffffffff169060200190929190803590602001909291905050506111c8565b005b34801561036b57600080fd5b506103b86004803603604081101561038257600080fd5b81019080803573ffffffffffffffffffffffffffffffffffffffff1690602001909291908035906020019092919050505061141a565b005b3480156103c657600080fd5b506103cf611665565b6040518082815260200191505060405180910390f35b3480156103f157600080fd5b5061045e6004803603606081101561040857600080fd5b81019080803573ffffffffffffffffffffffffffffffffffffffff169060200190929190803573ffffffffffffffffffffffffffffffffffffffff16906020019092919080359060200190929190505050611672565b005b34801561046c57600080fd5b506105306004803603604081101561048357600080fd5b8101908080359060200190929190803590602001906401000000008111156104aa57600080fd5b8201836020820111156104bc57600080fd5b803590602001918460018302840111640100000000831117156104de57600080fd5b91908080601f016020809104026020016040519081016040528093929190818152602001838380828437600081840152601f19601f820116905080830192505050505050509192919290505050611697565b005b34801561053e57600080fd5b5061058b6004803603604081101561055557600080fd5b81019080803573ffffffffffffffffffffffffffffffffffffffff169060200190929190803590602001909291905050506116da565b6040518082815260200191505060405180910390f35b3480156105ad57600080fd5b506105da600480360360208110156105c457600080fd5b8101908080359060200190929190505050611751565b604051808215151515815260200191505060405180910390f35b34801561060057600080fd5b5061060961195d565b604051808215151515815260200191505060405180910390f35b34801561062f57600080fd5b5061078a6004803603606081101561064657600080fd5b81019080803590602001909291908035906020019064010000000081111561066d57600080fd5b82018360208201111561067f57600080fd5b803590602001918460018302840111640100000000831117156106a157600080fd5b91908080601f016020809104026020016040519081016040528093929190818152602001838380828437600081840152601f19601f8201169050808301925050505050505091929192908035906020019064010000000081111561070457600080fd5b82018360208201111561071657600080fd5b8035906020019184600183028401116401000000008311171561073857600080fd5b91908080601f016020809104026020016040519081016040528093929190818152602001838380828437600081840152601f19601f820116905080830192505050505050509192919290505050611b4f565b005b34801561079857600080fd5b506107e5600480360360408110156107af57600080fd5b81019080803573ffffffffffffffffffffffffffffffffffffffff16906020019092919080359060200190929190505050611b54565b604051808215151515815260200191505060405180910390f35b34801561080b57600080fd5b506108786004803603606081101561082257600080fd5b81019080803573ffffffffffffffffffffffffffffffffffffffff169060200190929190803573ffffffffffffffffffffffffffffffffffffffff16906020019092919080359060200190929190505050611cdf565b005b34801561088657600080fd5b5061088f611d00565b604051808273ffffffffffffffffffffffffffffffffffffffff1673ffffffffffffffffffffffffffffffffffffffff16815260200191505060405180910390f35b3480156108dd57600080fd5b5061090a600480360360208110156108f457600080fd5b8101908080359060200190929190505050611d26565b6040518080602001828103825283818151815260200191508051906020019080838360005b8381101561094a57808201518184015260208101905061092f565b50505050905090810190601f1680156109775780820380516001836020036101000a031916815260200191505b509250505060405180910390f35b34801561099157600080fd5b506109be600480360360208110156109a857600080fd5b8101908080359060200190929190505050611df2565b6040518082815260200191505060405180910390f35b3480156109e057600080fd5b50610a0d600480360360208110156109f757600080fd5b8101908080359060200190929190505050611e2a565b604051808273ffffffffffffffffffffffffffffffffffffffff1673ffffffffffffffffffffffffffffffffffffffff16815260200191505060405180910390f35b348015610a5b57600080fd5b50610a9e60048036036020811015610a7257600080fd5b81019080803573ffffffffffffffffffffffffffffffffffffffff169060200190929190505050611e67565b6040518082815260200191505060405180910390f35b348015610ac057600080fd5b50610ac9611eb6565b604051808215151515815260200191505060405180910390f35b348015610aef57600080fd5b50610b3e60048036036040811015610b0657600080fd5b81019080803573ffffffffffffffffffffffffffffffffffffffff1690602001909291908035151590602001909291905050506120a8565b005b348015610b4c57600080fd5b50610b7960048036036020811015610b6357600080fd5b81019080803590602001909291905050506121e4565b6040518080602001828103825283818151815260200191508051906020019080838360005b83811015610bb9578082015181840152602081019050610b9e565b50505050905090810190601f168015610be65780820380516001836020036101000a031916815260200191505b509250505060405180910390f35b348015610c0057600080fd5b50610d0460048036036080811015610c1757600080fd5b81019080803573ffffffffffffffffffffffffffffffffffffffff169060200190929190803573ffffffffffffffffffffffffffffffffffffffff1690602001909291908035906020019092919080359060200190640100000000811115610c7e57600080fd5b820183602082011115610c9057600080fd5b80359060200191846001830284011164010000000083111715610cb257600080fd5b91908080601f016020809104026020016040519081016040528093929190818152602001838380828437600081840152601f19601f8201169050808301925050505050505091929192905050506122b0565b005b348015610d1257600080fd5b50610d3f60048036036020811015610d2957600080fd5b81019080803590602001909291905050506122d8565b005b348015610d4d57600080fd5b50610d7a60048036036020811015610d6457600080fd5b81019080803590602001909291905050506123b0565b604051808273ffffffffffffffffffffffffffffffffffffffff1673ffffffffffffffffffffffffffffffffffffffff16815260200191505060405180910390f35b348015610dc857600080fd5b50610f3c6004803603610180811015610de057600080fd5b81019080803590602001909291908035906020019092919080604001906002806020026040519081016040528092919082600260200280828437600081840152601f19601f82011690508083019250505050505091929192908060800190600280602002604051908101604052809291906000905b82821015610ea9578382604002016002806020026040519081016040528092919082600260200280828437600081840152601f19601f82011690508083019250505050505081526020019060010190610e55565b50505050919291929080604001906002806020026040519081016040528092919082600260200280828437600081840152601f19601f820116905080830192505050505050919291929080604001906002806020026040519081016040528092919082600260200280828437600081840152601f19601f8201169050808301925050505050509192919290505050612467565b604051808215151515815260200191505060405180910390f35b348015610f6257600080fd5b50610fc560048036036040811015610f7957600080fd5b81019080803573ffffffffffffffffffffffffffffffffffffffff169060200190929190803573ffffffffffffffffffffffffffffffffffffffff1690602001909291905050506127fe565b604051808215151515815260200191505060405180910390f35b6060610fea82612892565b1515610ff557600080fd5b601360008381526020019081526020016000206000018054600181600116156101000203166002900480601f01602080910402602001604051908101604052809291908181526020018280546001816001161561010002031660029004801561109f5780601f106110745761010080835404028352916020019161109f565b820191906000526020600020905b81548152906001019060200180831161108257829003601f168201915b50505050509050919050565b600060026000837bffffffffffffffffffffffffffffffffffffffffffffffffffffffff19167bffffffffffffffffffffffffffffffffffffffffffffffffffffffff1916815260200190815260200160002060009054906101000a900460ff169050919050565b600080821415151561118d576040517f08c379a00000000000000000000000000000000000000000000000000000000081526004018080602001828103825260158152602001807f746f6b656e4964206d7573742062652076616c6964000000000000000000000081525060200191505060405180910390fd5b6004600083815260200190815260200160002060009054906101000a900473ffffffffffffffffffffffffffffffffffffffff169050919050565b8173ffffffffffffffffffffffffffffffffffffffff166003600083815260200190815260200160002060009054906101000a900473ffffffffffffffffffffffffffffffffffffffff1673ffffffffffffffffffffffffffffffffffffffff16141515156112c5576040517f08c379a00000000000000000000000000000000000000000000000000000000081526004018080602001828103825260348152602001807f74686520676976656e206164647265737320746f206e6f74206265207468652081526020017f6f776e6572206f662074686520746f6b656e496400000000000000000000000081525060400191505060405180910390fd5b6112cf33836127fe565b1515611369576040517f08c379a00000000000000000000000000000000000000000000000000000000081526004018080602001828103825260338152602001807f546f6b656e2073686f756c20626520617070726f76656420666f7220616c6c2081526020017f696e206f7264657220746f20617072726f76650000000000000000000000000081525060400191505060405180910390fd5b816004600083815260200190815260200160002060006101000a81548173ffffffffffffffffffffffffffffffffffffffff021916908373ffffffffffffffffffffffffffffffffffffffff160217905550808273ffffffffffffffffffffffffffffffffffffffff163373ffffffffffffffffffffffffffffffffffffffff167f8c5be1e5ebec7d5bd14f71427d1e84f3dd0314c0f7b2291e5b200ac8c7c3b92560405160405180910390a45050565b600160009054906101000a900473ffffffffffffffffffffffffffffffffffffffff1673ffffffffffffffffffffffffffffffffffffffff163373ffffffffffffffffffffffffffffffffffffffff161415156114df576040517f08c379a00000000000000000000000000000000000000000000000000000000081526004018080602001828103825260138152602001807f43616c6c6572206973206e6f74206f776e65720000000000000000000000000081525060200191505060405180910390fd5b600073ffffffffffffffffffffffffffffffffffffffff168273ffffffffffffffffffffffffffffffffffffffff16141515156115aa576040517f08c379a00000000000000000000000000000000000000000000000000000000081526004018080602001828103825260218152602001807f4e6577206f776e6572206d75737420626520612076616c69642061646472657381526020017f730000000000000000000000000000000000000000000000000000000000000081525060400191505060405180910390fd5b8160008083815260200190815260200160002060000160006101000a81548173ffffffffffffffffffffffffffffffffffffffff021916908373ffffffffffffffffffffffffffffffffffffffff1602179055507fcfaaa26691e16e66e73290fc725eee1a6b4e0e693a1640484937aac25ffb55a482604051808273ffffffffffffffffffffffffffffffffffffffff1673ffffffffffffffffffffffffffffffffffffffff16815260200191505060405180910390a15050565b6000600980549050905090565b61167c3382612904565b151561168757600080fd5b611692838383612999565b505050565b6116d6828260006040519080825280601f01601f1916602001820160405280156116d05781602001600182028038833980820191505090505b50611b4f565b5050565b60006116e583611e67565b821015156116f257600080fd5b600760008473ffffffffffffffffffffffffffffffffffffffff1673ffffffffffffffffffffffffffffffffffffffff1681526020019081526020016000208281548110151561173e57fe5b9060005260206000200154905092915050565b60003373ffffffffffffffffffffffffffffffffffffffff16601b600084815260200190815260200160002060010160009054906101000a900473ffffffffffffffffffffffffffffffffffffffff1673ffffffffffffffffffffffffffffffffffffffff161415151561182d576040517f08c379a00000000000000000000000000000000000000000000000000000000081526004018080602001828103825260178152602001807f536f6c7574696f6e206973206e6f7420756e697175652e00000000000000000081525060200191505060405180910390fd5b6060604051908101604052808381526020013373ffffffffffffffffffffffffffffffffffffffff16815260200160011515815250601b60008481526020019081526020016000206000820151816000015560208201518160010160006101000a81548173ffffffffffffffffffffffffffffffffffffffff021916908373ffffffffffffffffffffffffffffffffffffffff16021790555060408201518160010160146101000a81548160ff0219169083151502179055509050507f01d5f9f5a890e5385b4f1d07d3c8c1f739f82bb433ed461d4551b7af3edc63408233604051808381526020018273ffffffffffffffffffffffffffffffffffffffff1673ffffffffffffffffffffffffffffffffffffffff1681526020019250505060405180910390a160019050919050565b6000600160009054906101000a900473ffffffffffffffffffffffffffffffffffffffff1673ffffffffffffffffffffffffffffffffffffffff163373ffffffffffffffffffffffffffffffffffffffff16141515611a24576040517f08c379a00000000000000000000000000000000000000000000000000000000081526004018080602001828103825260138152602001807f43616c6c6572206973206e6f74206f776e65720000000000000000000000000081525060200191505060405180910390fd5b600160149054906101000a900460ff16151515611acf576040517f08c379a000000000000000000000000000000000000000000000000000000000815260040180806020018281038252602c8152602001807f70617573656420737461747573206d75737420626520646966666572656e742081526020017f7468616e2063757272656e74000000000000000000000000000000000000000081525060400191505060405180910390fd5b60018060146101000a81548160ff0219169083151502179055507f62e78cea01bee320cd4e420270b5ea74000d11b0c9f74754ebdbfc544b05a25833604051808273ffffffffffffffffffffffffffffffffffffffff1673ffffffffffffffffffffffffffffffffffffffff16815260200191505060405180910390a190565b505050565b6000600160009054906101000a900473ffffffffffffffffffffffffffffffffffffffff1673ffffffffffffffffffffffffffffffffffffffff163373ffffffffffffffffffffffffffffffffffffffff16141515611c1b576040517f08c379a00000000000000000000000000000000000000000000000000000000081526004018080602001828103825260138152602001807f43616c6c6572206973206e6f74206f776e65720000000000000000000000000081525060200191505060405180910390fd5b600160149054906101000a900460ff16151515611cc6576040517f08c379a000000000000000000000000000000000000000000000000000000000815260040180806020018281038252602c8152602001807f70617573656420737461747573206d75737420626520646966666572656e742081526020017f7468616e2063757272656e74000000000000000000000000000000000000000081525060400191505060405180910390fd5b611cd083836129bd565b611cd9826122d8565b92915050565b611cfb83838360206040519081016040528060008152506122b0565b505050565b601a60009054906101000a900473ffffffffffffffffffffffffffffffffffffffff1681565b6060611d3182612892565b1515611d3c57600080fd5b601360008381526020019081526020016000206001018054600181600116156101000203166002900480601f016020809104026020016040519081016040528092919081815260200182805460018160011615610100020316600290048015611de65780601f10611dbb57610100808354040283529160200191611de6565b820191906000526020600020905b815481529060010190602001808311611dc957829003601f168201915b50505050509050919050565b6000611dfc611665565b82101515611e0957600080fd5b600982815481101515611e1857fe5b90600052602060002001549050919050565b60006003600083815260200190815260200160002060009054906101000a900473ffffffffffffffffffffffffffffffffffffffff169050919050565b6000611eb0600560008473ffffffffffffffffffffffffffffffffffffffff1673ffffffffffffffffffffffffffffffffffffffff1681526020019081526020016000206129de565b50919050565b6000600160009054906101000a900473ffffffffffffffffffffffffffffffffffffffff1673ffffffffffffffffffffffffffffffffffffffff163373ffffffffffffffffffffffffffffffffffffffff16141515611f7d576040517f08c379a00000000000000000000000000000000000000000000000000000000081526004018080602001828103825260138152602001807f43616c6c6572206973206e6f74206f776e65720000000000000000000000000081525060200191505060405180910390fd5b600160149054906101000a900460ff161515612027576040517f08c379a000000000000000000000000000000000000000000000000000000000815260040180806020018281038252602c8152602001807f70617573656420737461747573206d75737420626520646966666572656e742081526020017f7468616e2063757272656e74000000000000000000000000000000000000000081525060400191505060405180910390fd5b6000600160146101000a81548160ff0219169083151502179055507fff2b959f2bcdb44c7ecb4b16dae055431019d7350607125cfc2b74a06632c90e33604051808273ffffffffffffffffffffffffffffffffffffffff1673ffffffffffffffffffffffffffffffffffffffff16815260200191505060405180910390a190565b3373ffffffffffffffffffffffffffffffffffffffff168273ffffffffffffffffffffffffffffffffffffffff16141515156120e357600080fd5b80600660003373ffffffffffffffffffffffffffffffffffffffff1673ffffffffffffffffffffffffffffffffffffffff16815260200190815260200160002060008473ffffffffffffffffffffffffffffffffffffffff1673ffffffffffffffffffffffffffffffffffffffff16815260200190815260200160002060006101000a81548160ff0219169083151502179055508173ffffffffffffffffffffffffffffffffffffffff163373ffffffffffffffffffffffffffffffffffffffff167f17307eab39ab6107e8899845ad3d59bd9653f200f220920489ca2b5937696c3183604051808215151515815260200191505060405180910390a35050565b60606121ef82612892565b15156121fa57600080fd5b601360008381526020019081526020016000206002018054600181600116156101000203166002900480601f0160208091040260200160405190810160405280929190818152602001828054600181600116156101000203166002900480156122a45780601f10612279576101008083540402835291602001916122a4565b820191906000526020600020905b81548152906001019060200180831161228757829003601f168201915b50505050509050919050565b6122bb848484611672565b6122c7848484846129ec565b15156122d257600080fd5b50505050565b6122e181612892565b15156122ec57600080fd5b6123ac601360008381526020019081526020016000206002018054600181600116156101000203166002900480601f0160208091040260200160405190810160405280929190818152602001828054600181600116156101000203166002900480156123995780601f1061236e57610100808354040283529160200191612399565b820191906000526020600020905b81548152906001019060200180831161237c57829003601f168201915b50505050506123a783612c0f565b612d68565b5050565b600080821415151561242a576040517f08c379a000000000000000000000000000000000000000000000000000000000815260040180806020018281038252601e8152602001807f506c6561736520656e74657220616e2076616c696420746f6b656e204964000081525060200191505060405180910390fd5b60008083815260200190815260200160002060000160009054906101000a900473ffffffffffffffffffffffffffffffffffffffff169050919050565b600080858585856040516020018085600260200280838360005b8381101561249c578082015181840152602081019050612481565b505050509050018460026000925b818410156124f05782846020020151600260200280838360005b838110156124df5780820151818401526020810190506124c4565b5050505090500192600101926124aa565b9250505083600260200280838360005b8381101561251b578082015181840152602081019050612500565b5050505090500182600260200280838360005b8381101561254957808201518184015260208101905061252e565b50505050905001945050505050604051602081830303815290604052805190602001209050601b600082815260200190815260200160002060010160149054906101000a900460ff1615156127f2576000601a60009054906101000a900473ffffffffffffffffffffffffffffffffffffffff1673ffffffffffffffffffffffffffffffffffffffff1663621e9ec0888888886040518563ffffffff167c01000000000000000000000000000000000000000000000000000000000281526004018085600260200280838360005b83811015612632578082015181840152602081019050612617565b505050509050018460026000925b818410156126865782846020020151600260200280838360005b8381101561267557808201518184015260208101905061265a565b505050509050019260010192612640565b9250505083600260200280838360005b838110156126b1578082015181840152602081019050612696565b5050505090500182600260200280838360005b838110156126df5780820151818401526020810190506126c4565b50505050905001945050505050602060405180830381600087803b15801561270657600080fd5b505af115801561271a573d6000803e3d6000fd5b505050506040513d602081101561273057600080fd5b8101908080519060200190929190505050905080156127f05761275282611751565b5061275b611665565b881015156127d1576040517f08c379a00000000000000000000000000000000000000000000000000000000081526004018080602001828103825260138152602001807f496e76616c696420546f6b656e20696e6465780000000000000000000000000081525060200191505060405180910390fd5b6127db338a611b54565b506127e5896122d8565b6001925050506127f4565b505b505b9695505050505050565b6000600660008473ffffffffffffffffffffffffffffffffffffffff1673ffffffffffffffffffffffffffffffffffffffff16815260200190815260200160002060008373ffffffffffffffffffffffffffffffffffffffff1673ffffffffffffffffffffffffffffffffffffffff16815260200190815260200160002060009054906101000a900460ff16905092915050565b6000806003600084815260200190815260200160002060009054906101000a900473ffffffffffffffffffffffffffffffffffffffff169050600073ffffffffffffffffffffffffffffffffffffffff168173ffffffffffffffffffffffffffffffffffffffff161415915050919050565b60008061291083611e2a565b90508073ffffffffffffffffffffffffffffffffffffffff168473ffffffffffffffffffffffffffffffffffffffff16148061297f57508373ffffffffffffffffffffffffffffffffffffffff1661296784611113565b73ffffffffffffffffffffffffffffffffffffffff16145b80612990575061298f81856127fe565b5b91505092915050565b6129a4838383612daf565b6129ae8382613104565b6129b882826132a8565b505050565b6129c7828261336f565b6129d182826132a8565b6129da8161350a565b5050565b600081600001549050919050565b6000612a0d8473ffffffffffffffffffffffffffffffffffffffff16613556565b1515612a1c5760019050612c07565b60008473ffffffffffffffffffffffffffffffffffffffff1663150b7a02338887876040518563ffffffff167c0100000000000000000000000000000000000000000000000000000000028152600401808573ffffffffffffffffffffffffffffffffffffffff1673ffffffffffffffffffffffffffffffffffffffff1681526020018473ffffffffffffffffffffffffffffffffffffffff1673ffffffffffffffffffffffffffffffffffffffff16815260200183815260200180602001828103825283818151815260200191508051906020019080838360005b83811015612b13578082015181840152602081019050612af8565b50505050905090810190601f168015612b405780820380516001836020036101000a031916815260200191505b5095505050505050602060405180830381600087803b158015612b6257600080fd5b505af1158015612b76573d6000803e3d6000fd5b505050506040513d6020811015612b8c57600080fd5b8101908080519060200190929190505050905063150b7a027c0100000000000000000000000000000000000000000000000000000000027bffffffffffffffffffffffffffffffffffffffffffffffffffffffff1916817bffffffffffffffffffffffffffffffffffffffffffffffffffffffff1916149150505b949350505050565b60606000821415612c57576040805190810160405280600181526020017f30000000000000000000000000000000000000000000000000000000000000008152509050612d63565b600082905060005b600082141515612c85578080600101915050600a82811515612c7d57fe5b049150612c5f565b6060816040519080825280601f01601f191660200182016040528015612cba5781602001600182028038833980820191505090505b50905060006001830390505b600086141515612d5b57600a86811515612cdc57fe5b066030017f010000000000000000000000000000000000000000000000000000000000000002828280600190039350815181101515612d1757fe5b9060200101907effffffffffffffffffffffffffffffffffffffffffffffffffffffffffffff1916908160001a905350600a86811515612d5357fe5b049550612cc6565b819450505050505b919050565b6060612da783836020604051908101604052806000815250602060405190810160405280600081525060206040519081016040528060008152506135a2565b905092915050565b6003600082815260200190815260200160002060009054906101000a900473ffffffffffffffffffffffffffffffffffffffff1673ffffffffffffffffffffffffffffffffffffffff168373ffffffffffffffffffffffffffffffffffffffff16141515612eab576040517f08c379a00000000000000000000000000000000000000000000000000000000081526004018080602001828103825260318152602001807f66726f6d2061646472657373206d75737420626520746865206f776e6572206f81526020017f662074686520676976656e20746f6b656e00000000000000000000000000000081525060400191505060405180910390fd5b600073ffffffffffffffffffffffffffffffffffffffff168273ffffffffffffffffffffffffffffffffffffffff1614151515612f76576040517f08c379a00000000000000000000000000000000000000000000000000000000081526004018080602001828103825260278152602001807f53656e64696e672061646472657373206d75737420626520612076616c69642081526020017f616464726573730000000000000000000000000000000000000000000000000081525060400191505060405180910390fd5b6001600660008573ffffffffffffffffffffffffffffffffffffffff1673ffffffffffffffffffffffffffffffffffffffff16815260200190815260200160002060008473ffffffffffffffffffffffffffffffffffffffff1673ffffffffffffffffffffffffffffffffffffffff16815260200190815260200160002060006101000a81548160ff021916908315150217905550816003600083815260200190815260200160002060006101000a81548173ffffffffffffffffffffffffffffffffffffffff021916908373ffffffffffffffffffffffffffffffffffffffff1602179055506130a4600560008473ffffffffffffffffffffffffffffffffffffffff1673ffffffffffffffffffffffffffffffffffffffff1681526020019081526020016000206139bd565b808273ffffffffffffffffffffffffffffffffffffffff168473ffffffffffffffffffffffffffffffffffffffff167fddf252ad1be2c89b69c2b068fc378daa952ba7f163c4a11628f55a4df523b3ef60405160405180910390a4505050565b600061315c6001600760008673ffffffffffffffffffffffffffffffffffffffff1673ffffffffffffffffffffffffffffffffffffffff168152602001908152602001600020805490506139d390919063ffffffff16565b9050600060086000848152602001908152602001600020549050818114151561324f576000600760008673ffffffffffffffffffffffffffffffffffffffff1673ffffffffffffffffffffffffffffffffffffffff168152602001908152602001600020838154811015156131cd57fe5b9060005260206000200154905080600760008773ffffffffffffffffffffffffffffffffffffffff1673ffffffffffffffffffffffffffffffffffffffff1681526020019081526020016000208381548110151561322757fe5b9060005260206000200181905550816008600083815260200190815260200160002081905550505b600760008573ffffffffffffffffffffffffffffffffffffffff1673ffffffffffffffffffffffffffffffffffffffff1681526020019081526020016000208054809190600190036132a19190613adf565b5050505050565b600760008373ffffffffffffffffffffffffffffffffffffffff1673ffffffffffffffffffffffffffffffffffffffff168152602001908152602001600020805490506008600083815260200190815260200160002081905550600760008373ffffffffffffffffffffffffffffffffffffffff1673ffffffffffffffffffffffffffffffffffffffff1681526020019081526020016000208190806001815401808255809150509060018203906000526020600020016000909192909190915055505050565b61337881612892565b1515613412576040517f08c379a00000000000000000000000000000000000000000000000000000000081526004018080602001828103825260328152602001807f746f6b656e496420616c726561647920657869737473206f7220676976656e2081526020017f6164647265737320697320696e76616c6964000000000000000000000000000081525060400191505060405180910390fd5b816003600083815260200190815260200160002060006101000a81548173ffffffffffffffffffffffffffffffffffffffff021916908373ffffffffffffffffffffffffffffffffffffffff1602179055506134ab600560008473ffffffffffffffffffffffffffffffffffffffff1673ffffffffffffffffffffffffffffffffffffffff1681526020019081526020016000206139bd565b808273ffffffffffffffffffffffffffffffffffffffff163373ffffffffffffffffffffffffffffffffffffffff167fddf252ad1be2c89b69c2b068fc378daa952ba7f163c4a11628f55a4df523b3ef60405160405180910390a45050565b600980549050600a600083815260200190815260200160002081905550600981908060018154018082558091505090600182039060005260206000200160009091929091909150555050565b60008060007fc5d2460186f7233c927e7db2dcc703c0e500b653ca82273b7bfad8045d85a4706001029050833f9150808214158015613599575060006001028214155b92505050919050565b6060808690506060869050606086905060608690506060869050606081518351855187518951010101016040519080825280601f01601f1916602001820160405280156135fe5781602001600182028038833980820191505090505b509050606081905060008090506000809050600090505b88518110156136c857888181518110151561362c57fe5b9060200101517f010000000000000000000000000000000000000000000000000000000000000090047f010000000000000000000000000000000000000000000000000000000000000002838380600101945081518110151561368b57fe5b9060200101907effffffffffffffffffffffffffffffffffffffffffffffffffffffffffffff1916908160001a9053508080600101915050613615565b600090505b87518110156137805787818151811015156136e457fe5b9060200101517f010000000000000000000000000000000000000000000000000000000000000090047f010000000000000000000000000000000000000000000000000000000000000002838380600101945081518110151561374357fe5b9060200101907effffffffffffffffffffffffffffffffffffffffffffffffffffffffffffff1916908160001a90535080806001019150506136cd565b600090505b865181101561383857868181518110151561379c57fe5b9060200101517f010000000000000000000000000000000000000000000000000000000000000090047f01000000000000000000000000000000000000000000000000000000000000000283838060010194508151811015156137fb57fe5b9060200101907effffffffffffffffffffffffffffffffffffffffffffffffffffffffffffff1916908160001a9053508080600101915050613785565b600090505b85518110156138f057858181518110151561385457fe5b9060200101517f010000000000000000000000000000000000000000000000000000000000000090047f01000000000000000000000000000000000000000000000000000000000000000283838060010194508151811015156138b357fe5b9060200101907effffffffffffffffffffffffffffffffffffffffffffffffffffffffffffff1916908160001a905350808060010191505061383d565b600090505b84518110156139a857848181518110151561390c57fe5b9060200101517f010000000000000000000000000000000000000000000000000000000000000090047f010000000000000000000000000000000000000000000000000000000000000002838380600101945081518110151561396b57fe5b9060200101907effffffffffffffffffffffffffffffffffffffffffffffffffffffffffffff1916908160001a90535080806001019150506138f5565b82995050505050505050505095945050505050565b6001816000016000828254019250508190555050565b6000613a1583836040805190810160405280601e81526020017f536166654d6174683a207375627472616374696f6e206f766572666c6f770000815250613a1d565b905092915050565b60008383111582901515613acc576040517f08c379a00000000000000000000000000000000000000000000000000000000081526004018080602001828103825283818151815260200191508051906020019080838360005b83811015613a91578082015181840152602081019050613a76565b50505050905090810190601f168015613abe5780820380516001836020036101000a031916815260200191505b509250505060405180910390fd5b5060008385039050809150509392505050565b815481835581811115613b0657818360005260206000209182019101613b059190613b0b565b5b505050565b613b2d91905b80821115613b29576000816000905550600101613b11565b5090565b9056fea165627a7a72305820368f37f4aecd6a43ff515f8ec582c3e794cdc3a9792d605bbb07d65f387d22e80029",
  "source": "pragma solidity >=0.5.0;\nimport \"../../zokrates/code/square/verifier.sol\";\nimport \"./ERC721Mintable.sol\";\n\n\n\n\n// TODO define another contract named SolnSquareVerifier that inherits from your ERC721Mintable class\ncontract SolnSquareVerifier is ERC721MintableComplete{\n    string private _name;\n    string private _symbol;\n    string private _tokenURI;\n    \n    // Zokrates generated solidity contract\n    Verifier public squareVerifier;\n\n    constructor(address verifierAddress) public\n    \n    {       \n            _name = \"Rafiul Token\";\n            _symbol = \"RHT\";\n            _tokenURI = \"https://s3-us-west-2.amazonaws.com/udacity-blockchain/capstone/\";\n            squareVerifier = Verifier(verifierAddress);\n    }\n// TODO define a solutions struct that can hold an index & an address\nstruct Solution{\n    bytes32 index;\n    address account;\n    bool isExist;\n}\n\n// TODO define an array of the above struct\n\n\n// TODO define a mapping to store unique solutions submitted\nmapping (bytes32 => Solution) uniqueSolutions;\n\n\n// TODO Create an event to emit when a solution is added\nevent SolutionAdded(bytes32 index, address account);\n\n \n// TODO Create a function to add the solutions to the array and emit the event\nfunction addSolutionsToArray(bytes32 key) public returns(bool){\n    require(uniqueSolutions[key].account != msg.sender, \"Solution is not unique.\");\n    uniqueSolutions[key] = Solution({index: key, account: msg.sender, isExist: true});\n    emit SolutionAdded(key, msg.sender);\n    return true;\n}\n\n\n// TODO Create a function to mint new NFT only after the solution has been verified\nfunction mintToken(\n            uint256 tokenId,\n            uint256 index, \n            uint[2] memory a,\n            uint[2][2] memory b,\n            uint[2] memory c,\n            uint[2] memory input)\n\n             public\n             returns (bool)\n              {\n\n    bytes32 key = keccak256(abi.encodePacked(a, b, c, input));\n\n    if(!uniqueSolutions[key].isExist){\n      bool verification = squareVerifier.verifyTx(a, b, c,input);\n\n        if(verification){\n            addSolutionsToArray(key);\n            require(index < totalSupply(), \"Invalid Token index\");\n            mint(msg.sender,tokenId);\n            //  - make sure you handle metadata as well as tokenSuplly\n            setTokenURI(tokenId);\n            return true;\n        }\n     }\n    }\n}\n// //  TODO define a contract call to the zokrates generated solidity contract <Verifier> or <renamedVerifier>\n// contract  Verifier{\n//         function verifyTx(\n//         uint[2] memory a,\n//         uint[2][2] memory b,\n//         uint[2] memory c,\n//         uint[2] memory input\n//         ) public returns (bool r);\n// }\n",
  "sourcePath": "C:/projects/Blockchain-Capstone-NFT/eth-contracts/contracts/SolnSquareVerifier.sol",
  "compiler": {
    "name": "solc",
    "version": "0.5.0+commit.1d4f565a.Emscripten.clang"
  },
  "schemaVersion": "3.0.9",
  "updatedAt": "2021-07-26T07:15:12.845Z",
  "devdoc": {
    "methods": {
      "isApprovedForAll(address,address)": {
        "details": "Tells whether an operator is approved by a given owner",
        "params": {
          "operator": "operator address which you want to query the approval of",
          "owner": "owner address which you want to query the approval of"
        },
        "return": "bool whether the given operator is approved by the given owner"
      },
      "setApprovalForAll(address,bool)": {
        "details": "Sets or unsets the approval of a given operator An operator is allowed to transfer all tokens of the sender on their behalf",
        "params": {
          "approved": "representing the status of the approval to be set",
          "to": "operator address to set the approval"
        }
      },
      "supportsInterface(bytes4)": {
        "details": "implement supportsInterface(bytes4) using a lookup table"
      },
      "tokenByIndex(uint256)": {
        "details": "Gets the token ID at a given index of all the tokens in this contract Reverts if the index is greater or equal to the total number of tokens",
        "params": {
          "index": "uint256 representing the index to be accessed of the tokens list"
        },
        "return": "uint256 token ID at the given index of the tokens list"
      },
      "tokenOfOwnerByIndex(address,uint256)": {
        "details": "Gets the token ID at a given index of the tokens list of the requested owner",
        "params": {
          "index": "uint256 representing the index to be accessed of the requested tokens list",
          "owner": "address owning the tokens list to be accessed"
        },
        "return": "uint256 token ID at the given index of the tokens list owned by the requested address"
      },
      "totalSupply()": {
        "details": "Gets the total amount of tokens stored by the contract",
        "return": "uint256 representing the total amount of tokens"
      }
    }
  },
  "userdoc": {
    "methods": {}
  }
}